:1009FD00120B96120BCBE51864014517700B1209FB
:100A0D008CE5166401451570F5E516640145157004
:100A1D00E5E513702FE51424FE6016047026120B05
:100A2D0015E518640145176008E514640145136068
:100A3D00ED120B74E518640145176008E5146402A6
:100A4D00451360F0E4F515F516E5186401451770CA
:030A5D00C080A3B3
:080B8600021700000215000037
:0F0B9600D2AFD2A8D2AAD288D28AC2BAC2B8220B
:03000300020AED01
:100AED00C0E0C0D00514E51470020513751500752E
:100AFD001601C39403E513648094804006751300BA
:080B0D00751400D0D0D0E032D5
:03001300020BC419
:070BC40075170075180132DE
:100B5600EF1FAA0670011E4A6013E4FCFDC3ED9464
:0D0B6600C8EC940050EA0DBD00010C80F0B9
:010B7300225F
:0B0BA500EF1FAC0670011E4C70F62222
:100B3600E4FDFCC3ED9FEC9E5015E4FBFA0BBB00F5
:0F0B4600010AEB64C84A70F50DBD00010C80E494
:010B5500227D
:0A0BB000C0F9A4B0999282F8809079
:070B8E00010E10020C000033
:100AB500D2B5C2B6C2B78508807F0F7E00120B364D
:100AC500E4F580C2B5D2B6C2B78509807F0FFE12A4
:100AD5000B36E4F580C2B5C2B6D2B7850A807F0F62
:080AE500FE120B36E4F580223D
:10098C00C2B0D2B0C2B020B167D2B4AF90750C0077
:10099C008F0DC2B4AE0C7C007D0A120A6074B02DAF
:1009AC00F582740B3CF583E493F508AE0CAF0D7C2B
:1009BC00007D0A120A607C007D0A120A6074B02D58
:1009CC00F582740B3CF583E493F509AE0CAF0D7C0A
:1009DC00007D64120A607C007D0A120A6074B02DDE
:1009EC00F582740B3CF583E493F50A120AB58096F4
:0109FC0022D8
:10080000808386898C8F9295989C9FA2A5A8ABAE79
:10081000B0B3B6B9BCBFC1C4C7C9CCCED1D3D5D88B
:10082000DADCDEE0E2E4E6E8EAECEDEFF0F2F3F445
:10083000F6F7F8F9FAFBFCFCFDFEFEFFFFFFFFFFF9
:10084000FFFFFFFFFFFFFEFEFDFCFCFBFAF9F8F7E0
:10085000F6F5F3F2F0EFEDECEAE8E6E4E3E1DEDCF6
:10086000DAD8D6D3D1CECCC9C7C4C1BFBCB9B6B40F
:10087000B1AEABA8A5A29F9C9996928F8C898683D6
:10088000807D797673706D6A6764615E5B585552DE
:100890004F4C494643413E3B393633312E2C2A27B3
:1008A0002523211F1D1B1917151412100F0D0C0BDA
:1008B0000908070605040303020101000000000007
:1008C0000000000000000101020303040506070800
:1008D000090A0C0D0E1012131517181A1C1E2023CE
:1008E0002527292C2E303335383B3D404346484B95
:1008F0004E5154575A5D606366696C6F7376797CAC
:010BCB002207
:100B1500E4FFFE74002FF58274083EF583E493F537
:100B2500A00FBF00010EE4B507E9EEB401E5C28CE4
:010B3500229D
:100B7400758901D2A9D2AF758CF8758A30D2B9D2F1
:020B84008C22C1
:03000B00020BBA2B
:0A0BBA0063A0FF758CF8758A3032D5
:03000000020900F2
:0C090000787FE4F6D8FD758118020947E5
:100A6000BC000BBE0029EF8DF084FFADF022E4CC7A
:100A7000F875F008EF2FFFEE33FEEC33FCEE9DEC43
:100A8000984005FCEE9DFE0FD5F0E9E4CEFD22ED89
:100A9000F8F5F0EE8420D21CFEADF075F008EF2FD3
:100AA000FFED33FD4007985006D5F0F222C398FDC4
:050AB0000FD5F0EA2261
:10090C000209FDE493A3F8E493A34003F68001F2FB
:10091C0008DFF48029E493A3F85407240CC8C333EC
:10092C00C4540F4420C8834004F456800146F6DFBB
:10093C00E4800B0102040810204080900B86E47EBA
:10094C00019360BCA3FF543F30E509541FFEE493B0
:10095C00A360010ECF54C025E060A840B8E493A377
:10096C00FAE493A3F8E493A3C8C582C8CAC583CAA2
:10097C00F0A3C8C582C8CAC583CADFE9DEE780BE5A
:010B9500005F
:00000001FF
