:0A0E3700C0F9A4B0999282F88090EF
:040DB6000233000004
:10099800751A00751B80E4F51CF51DF51EF51F1270
:1009A8000D64120E0D120E1DE5326401453160030F
:1009B800020A45120D64EF64044E70230534E534D1
:1009C80070020533D39404E533648094804005E4D1
:1009D800F533F534E4F51EF51FF51CF51D803FEFE2
:1009E80064034E701B051FE51F7002051EC39403A8
:1009F800E51E648094804026751E00751F01801EC8
:100A0800EF64014E700A051DE51D7012051C800E6D
:100A1800EF64024E7008E51D151D7002151CAB1D14
:100A2800AA1CAD1FAC1EAF34AE33120AC6E4F531B2
:100A3800F532E5306401452F60030209BBE53064F7
:100A480001452F60030209B0D28CE52E6403452DC1
:100A58007051F518F519AF1B7801EF08800123D8FC
:100A6800FD751A00F51B6402451A6008E51B641041
:100A7800451A70037580BFE51B6404451A7580C06C
:100A88007F647E00120DDC0519E51970020518C394
:100A98009408E5186480948040BCE4F52DF52EF5A3
:100AA80026F527AD27AC26AF2EAE2D120800E4F5AB
:0E0AB8002FF530E53264014531708F0209B030
:080DBA00022F000002310000CD
:0F0E1D00D2AFD2A8D2AAD288D28AD2BAD2B82261
:100D640075A0FFE5A07E0060047F0180027F00EF94
:100D740064FE4E603C7F887E13120E2CE5A07E003C
:100D840060047F0180027F00EF64FE4E602320A098
:100D9400057E007F012220A1057E007F022220A281
:100DA400057E007F032220A4057E007F0422E4FE4A
:020DB400FF221C
:03000300020DFAF1
:100DFA00C0E0752F00753001052EE52E7002052D15
:030E0A00D0E03203
:03001300020E4B8F
:070E4B007531007532013220
:070DC200012C640226000071
:100E0D00758901D2A9D2AF758CFC758A18C2B92229
:030E5200D28C221D
:03000B00020B8C59
:100B8C00C0E0C0D075D000C000758CFC758A1815FB
:100B9C002CD3E52C64809480506F752C64C3E527AE
:100BAC009409E52664809480500A0527E527700295
:100BBC0005268055C3E525943BE52464809480503C
:100BCC00100525E525700205247526007527008083
:100BDC0038C3E529943BE52864809480501005299E
:100BEC00E52970020528752400752500801BC3E5D6
:100BFC002B943BE52A64809480500E052BE52B70DA
:100C0C0002052A752800752900C3E5299401E528F9
:100C1C00648094804022D374029529E5286480F87E
:100C2C007480984013D374059525E5246480F8747A
:100C3C0080984006B2A78002D2A7D000D0D0D0E0D6
:010C4C003275
:100DDC00EF1FAA0670011E4A6013E4FCFDC3ED94DC
:0D0DEC00C8EC940050EA0DBD00010C80F031
:010DF90022D7
:0B0E2C00EF1FAC0670011E4C70F62298
:0A0E4100C0F9A4B0999282F88090E5
:100DC9001008F901C002BF049908C010BF20B04043
:020DD900A480F4
:040800008C208D219A
:10080400752380EE6003020994EF24FE700302084E
:10081400D804600302099474412521F582740E35CD
:1008240020F583E493F508750ABFAE24AF257C0058
:100834007D0A120CD974412DF582740E3CF583E4C3
:1008440093F50CAE24AF257C007D0A120CD97441BB
:100854002FF582740E3EF583E493F50E7510BFAE4A
:1008640028AF297C007D0A120CD974412DF58274BD
:100874000E3CF583E493F512AE28AF297C007D0A83
:10088400120CD974412FF582740E3EF583E493F56E
:1008940014AE2AAF2B7C007D0A120CD974412DF5BD
:1008A40082740E3CF583E493F516E4F522E52225E3
:1008B400E02409F8E6F590E52225E02408F8E6F5B9
:1008C400807F037E00120DDC0522E522C3940840DC
:1008D400DC020994C28C74412521F582740E352002
:1008E400F583E493F508750ABFAE24AF257C007D3B
:1008F4000A120CD974412DF582740E3CF583E493ED
:10090400F50CAE24AF257C007D0A120CD974412F5E
:10091400F582740E3EF583E493F50E7510BFAE2890
:10092400AF297C007D0A120CD974412DF582740E16
:100934003CF583E493F512AE28AF297C007D0A12BE
:100944000CD974412FF582740E3EF583E493F514AB
:10095400AE2AAF2B7C007D0A120CD974412DF5828E
:10096400740E3CF583E493F516E4F522E52225E0C4
:100974002409F8E6F590E52225E02408F8E6F58058
:100984007F037E00120DDC0522E522C3940840DCBF
:03099400E4FEFF7F
:01099700223D
:040AC6008E208F21CE
:100ACA00E52164014520702CEB64014A70107441E1
:100ADA002DF582740E3CF583E493F508807CEB6473
:100AEA00024A707674412DF582740E3CF583E493C4
:100AFA00F50A8066E52164024520702CEB64014A00
:100B0A00701074412DF582740E3CF583E493F50E52
:100B1A008048EB64024A704274412DF582740E3C9F
:100B2A00F583E493F5108032E52164034520702AA9
:100B3A00EB64014A701074412DF582740E3CF58302
:100B4A00E493F5148014EB64024A700E74412DF597
:100B5A0082740E3CF583E493F516E4F522E522252A
:100B6A00E02409F8E6F590E52225E02408F8E6F500
:100B7A00807F037E00120DDC0522E522C394084023
:010B8A00DC8E
:010B8B002247
:03000000020C4DA2
:0C0C4D00787FE4F6D8FD758134020C9429
:100CD900C2D5EC30E709B2D5E4C39DFDE49CFCEE36
:100CE90030E715B2D5E4C39FFFE49EFE120D0FC392
:100CF900E49DFDE49CFC8003120D0F30D507C3E48D
:060D09009FFFE49EFE22A4
:100C5900020998E493A3F8E493A34003F68001F210
:100C690008DFF48029E493A3F85407240CC8C3339C
:100C7900C4540F4420C8834004F456800146F6DF6B
:100C8900E4800B0102040810204080900DB6E47E38
:100C9900019360BCA3FF543F30E509541FFEE49360
:100CA900A360010ECF54C025E060A840B8E493A327
:100CB900FAE493A3F8E493A3C8C582C8CAC583CA52
:100CC900F0A3C8C582C8CAC583CADFE9DEE780BE0A
:010DDB000017
:100D0F00BC000BBE0029EF8DF084FFADF022E4CCC8
:100D1F00F875F008EF2FFFEE33FEEC33FCEE9DEC91
:100D2F00984005FCEE9DFE0FD5F0E9E4CEFD22EDD7
:100D3F00F8F5F0EE8420D21CFEADF075F008EF2F21
:100D4F00FFED33FD4007985006D5F0F222C398FD12
:050D5F000FD5F0EA22AF
:00000001FF
