:020000040000FA
:10000000680200209D020000A5020000A702000077
:10001000A9020000AB020000AD02000000000000D9
:10002000000000000000000000000000AF0200001F
:10003000B102000000000000B3020000B5020000A1
:10004000B7020000B7020000B7020000B7020000CC
:10005000B7020000B7020000B7020000B7020000BC
:10006000B7020000B7020000B7020000B7020000AC
:10007000B7020000B7020000B7020000B70200009C
:10008000B7020000B7020000B7020000B70200008C
:10009000B7020000B7020000B7020000B70200007C
:1000A000B7020000B7020000B7020000B70200006C
:1000B000B7020000B7020000B7020000B70200005C
:1000C000B7020000B7020000B7020000B70200004C
:1000D000B7020000B7020000B7020000B70200003C
:1000E000B7020000B7020000B7020000B70200002C
:1000F000B7020000B7020000B7020000B70200001C
:10010000B7020000B7020000B7020000B70200000B
:10011000B7020000B7020000B7020000B7020000FB
:10012000B7020000B7020000B7020000B7020000EB
:10013000B7020000B7020000B7020000B7020000DB
:10014000B7020000B7020000B7020000B7020000CB
:100150000000000000000000B7020000B70200002D
:10016000B7020000B702000000000000B702000064
:10017000B7020000B7020000B7020000B70200009B
:10018000B7020000B7020000B7020000B70200008B
:10019000B7020000B7020000B7020000B70200007B
:1001A000B7020000B7020000B7020000B70200006B
:1001B0000000000000000000B7020000B7020000CD
:1001C000B702000000000000B7020000B702000004
:1001D000B7020000B7020000B7020000B70200003B
:1001E000000000000000000000000000000000000F
:1001F00000000000B7020000B702000000F002F8A3
:1002000000F03CF80AA090E8000C82448344AAF174
:100210000107DA4501D100F031F8AFF2090EBAE872
:100220000F0013F0010F18BFFB1A43F0010318472A
:10023000F802000018030000103A24BF78C878C103
:10024000FAD8520724BF30C830C144BF04680C60DC
:10025000704700000023002400250026103A28BF24
:1002600078C1FBD8520728BF30C148BF0B60704728
:100270001FB500F053F91FBD10B510BD00F02FF8E9
:100280001146FFF7F5FF00F037F900F04DF803B421
:10029000FFF7F2FF03BC00F051F800000948804767
:1002A00009480047FEE7FEE7FEE7FEE7FEE7FEE758
:1002B000FEE7FEE7FEE7FEE704480549034A054B73
:1002C00070470000D9040000FD0100006800002014
:1002D000680200206800002070477047704775462C
:1002E00000F028F8AE4605006946534620F00700A6
:1002F000854618B020B5FFF7DFFFBDE820404FF07E
:1003000000064FF000074FF000084FF0000B21F0FF
:100310000701AC46ACE8C009ACE8C009ACE8C009CC
:10032000ACE8C0098D4670470446AFF30080204614
:10033000FFF7ADFF00487047040000200149182076
:10034000ABBEFEE7260002007047D307D0F80034AA
:1003500001D00B4300E08B43C0F800349207D0F883
:10036000202401D50A4300E08A43C0F820247047C6
:100370002DE9F04300244FF001084FF00309C2F3C8
:10038000411C08FA04F50D420ED0D0F8C47F650078
:1003900009FA05F6B743C0F8C47FD0F8C46F0CFA69
:1003A00005F52E43C0F8C46F641CE4B2082CE8D3F2
:1003B000D407D0F8004501D00C4300E08C43C0F8CE
:1003C00000459407D0F8044501D50C4300E08C4368
:1003D000C0F804455407D0F8084501D50C4300E0A7
:1003E0008C43C0F808451407D0F8184501D50C43D4
:1003F00000E08C43C0F81845D206D0F83C2501D562
:100400000A4300E08A43C0F83C25DA07D0F80C25FF
:1004100001D00A4300E08A43C0F80C259A07D0F8BF
:10042000102501D50A4300E08A43C0F810255A0779
:10043000D0F8142501D50A4300E08A43C0F81425FA
:100440001A07D0F81C2501D50A4300E08A43C0F8FA
:100450001C259A05D0F8442501D50A4300E08A43BB
:10046000C0F84425D0F8402513F4407F01D00A435A
:1004700000E08A43C0F84025D0F8282523B18A43FC
:10048000C0F82825BDE8F0830A43F9E730B50C46EB
:10049000054608230122FFF76BFF21462846BDE8E9
:1004A00030400122FFF751BF40F821207047000083
:1004B000C0F307230749C0B2194401F07043C1F3E8
:1004C000130143EA411141EA800040F0007001222B
:1004D0000260704700E60F400448016841F4700173
:1004E00001600449024808607047000088ED00E0A0
:1004F0000024F400000000200648FFF7D9FF064C56
:1005000001212046FFF7C2FF012211462046FFF7D6
:10051000CBFFF9E70C0800F0004006404FF04070B8
:10052000E1EE100A704700004805000000000020BE
:1005300004000000380200004C0500000400002008
:0C05400064020000540200000024F400DB
:04000005000001FDF9
:00000001FF
