:10080000120DAE120A378E1A8F1BEF4E60F5E51AE5
:100810006003020A2DE51B24FE60671470030208C2
:10082000CA14700302091214700302095A147003E7
:100830000209CA24056003020A2D120D4FAF21AE32
:1008400020120C8A120A378E1A8F1BE51B64024590
:100850001A7003020A2DE51B6403451A7003020A8D
:100860002DE51B6404451A7003020A2DE51B64057F
:10087000451A7003020A2DE51B6406451A70BB0277
:100880000A2D120DD3AF21AE20120C8A120A378E18
:100890001A8F1BE51B6401451A7003020A2DE51B24
:1008A0006403451A7003020A2DE51B6404451A709F
:1008B00003020A2DE51B6405451A7003020A2DE5A3
:1008C0001B6406451A70BB020A2D120D69AF21AEDA
:1008D00020120C8A120A378E1A8F1BE51B64024500
:1008E0001A7003020A2DE51B6401451A7003020AFF
:1008F0002DE51B6404451A7003020A2DE51B6405EF
:10090000451A7003020A2DE51B6406451A70BB02E6
:100910000A2D120D4FAF21AE20120C8A120A378E0B
:100920001A8F1BE51B6402451A7003020A2DE51B92
:100930006403451A7003020A2DE51B6401451A7011
:1009400003020A2DE51B6405451A7003020A2DE512
:100950001B6406451A70BB020A2DE50B6401450AAB
:10096000702374052521F521E43520F520D3E521F8
:100970009464E520648094804006752000752132DF
:10098000E4F50AF50BAF21AE20120C08AF21AE2022
:10099000120C8A120A378E1A8F1BE51B6402451A45
:1009A0007003020A2DE51B6403451A7003020A2D29
:1009B000E51B6401451A6075E51B6404451A606D0A
:1009C000E51B6406451A70928063E50964014508D9
:1009D000701E74FB2521F52174FF3520F520C364BA
:1009E0008094805006752000752132E4F508F509E1
:1009F000AF21AE20120C08AF21AE20120C8A120AD1
:100A0000378E1A8F1BE51B6402451A6020E51B64B4
:100A100003451A6018E51B6401451A6010E51B6464
:100A200004451A6008E51B6405451A709DAF21AEA8
:070A300020120C8A02080EDF
:0A0DC9003F065B4F666D7D077F6FEC
:100C8A00AB07AA067C007D0A120B7D8E108F11AE6F
:100C9A0002AF037C007D0A120B7D8C128D13E4F5E2
:100CAA0014F515E5154514701EC2A0D2A174C92504
:100CBA0011F582740D3510F583E493F5807F647E17
:100CCA0000120D9CE4F580E51564014514701ED2EE
:100CDA00A0C2A174C92513F582740D3512F583E4F7
:100CEA0093F5807F647E00120D9CE4F5800515E57E
:100CFA001570020514C39402E5146480948040A31D
:010D0A0022C6
:100C08008E1C8F1DC3740A951DE51C6480F87480C2
:100C180098402AE4F51EF51FC2B27F887E13120D94
:100C28009CD2B27F887E13120D9C051FE51F7002AF
:100C3800051EC39405E51E6480948040DBC3E51D52
:100C4800945AE51C648094804002D28CE5176401B4
:100C58004516702DF516F517F51EF51FC2B27F88DB
:100C68007E13120D9CD2B27F887E13120D9C051F35
:100C7800E51F7002051EC39405E51E64809480403C
:020C8800DB226D
:040D83000218000052
:100DAE00758901D2A9D2AF758C3C758AB0C2B922B1
:03000B00020D0BD8
:100D0B00C0E0758C3C758AB00519E51970020518A1
:100D1B0064644518700BF516751701F518F519C2B3
:040D2B008CD0E03256
:100D8700020C0000020E0000020A00000208000028
:100A37002094407F107E27120D9C209479050DE5A8
:100A47000D7002050C6401450C7004FE7F0122E560
:100A57000D6402450C7004FE7F0222C3E50D94036A
:100A6700E50C64809480404E750C00750D017E0086
:100A77007F01222095407F107E27120D9C209536FE
:100A8700050FE50F7002050E6401450E7004FE7F29
:100A97000322E50F6402450E7004FE7F0422D3E5AE
:100AA7000F9403E50E64809480400B750E00750F5C
:100AB700017E007F03222097157F107E27120D9C51
:100AC70020970B750A00750B017E007F0522209683
:100AD700157F107E27120D9C20960B75080075094F
:0A0AE700017E007F0622E4FEFF22DC
:100D9C00D3EF9400EE9400400800EF1F70F21E8019
:020DAC00EF2234
:0B0DBE00EF1FAC0670011E4C70F62207
:100D2F00E4FDFCC3ED9FEC9E5015E4FBFA0BBB00FA
:0F0D3F00010AEB64784A70F50DBD00010C80E4E9
:010D4E002282
:040D97000220003204
:100D4F00C2B0D2B1AF21AE20120D9CC2B1C3746438
:0A0D5F009521FFE49520FE020D9C93
:050DD300D2B0D2B122F4
:100D6900D2B0C2B1AF21AE20120D9CC2B0C374641F
:0A0D79009521FFE49520FE020D9C79
:03000000020AF100
:0C0AF100787FE4F6D8FD758121020B38F7
:100B7D00C2D5EC30E709B2D5E4C39DFDE49CFCEE93
:100B8D0030E715B2D5E4C39FFFE49EFE120BB3C34D
:100B9D00E49DFDE49CFC8003120BB330D507C3E448
:060BAD009FFFE49EFE2202
:100AFD00020800E493A3F8E493A34003F68001F207
:100B0D0008DFF48029E493A3F85407240CC8C333F9
:100B1D00C4540F4420C8834004F456800146F6DFC8
:100B2D00E4800B0102040810204080900D83E47EC8
:100B3D00019360BCA3FF543F30E509541FFEE493BD
:100B4D00A360010ECF54C025E060A840B8E493A384
:100B5D00FAE493A3F8E493A3C8C582C8CAC583CAAF
:100B6D00F0A3C8C582C8CAC583CADFE9DEE780BE67
:010D9B000057
:100BB300BC000BBE0029EF8DF084FFADF022E4CC26
:100BC300F875F008EF2FFFEE33FEEC33FCEE9DECEF
:100BD300984005FCEE9DFE0FD5F0E9E4CEFD22ED35
:100BE300F8F5F0EE8420D21CFEADF075F008EF2F7F
:100BF300FFED33FD4007985006D5F0F222C398FD70
:050C03000FD5F0EA220C
:00000001FF
