:090AF1000709C0F9A4B099928232
:1008000075102775111075A0FF850980120A688F71
:1008100008E50824FE604614606E1470030208BFE9
:100820001470030208F614700302093C24056003E7
:10083000020973850A80120A91120A688F08E50876
:10084000640260C2E508640360BCE508640460B645
:10085000E508640560B0E508B406DB80A9850B8077
:10086000120AB9120A688F08E50864056098E5085D
:1008700064036092E5086404608CE50864016086A6
:10088000E508B406DB020806850C80120AA5120AE8
:10089000688F08E50864027003020806E50864052D
:1008A0007003020806E50864047003020806E50800
:1008B00064017003020806E508B406CF0208068545
:1008C0000D80120A3A120A688F08E5086402700364
:1008D000020806E50864037003020806E5086405DB
:1008E0007003020806E50864017003020806E508C3
:1008F000B406CF020806850E80749C2511F511748C
:10090000FF3510F510AF11FE120A08120A688F08A1
:10091000E50864027003020806E508640370030238
:100920000806E50864047003020806E5086401701F
:1009300003020806E508B406C0020806850980120D
:100940000AFB120A688F08E50864027003020806B1
:10095000E50864037003020806E5086404700302F6
:100960000806E50864017003020806E508B406CF2E
:0C097000020806850980120AFB02080636
:100ACD00E4FDFCC3ED9FEC9E50070DBD00010C80B5
:010ADD00F226
:010ADE0022F5
:100ADF00E4FDFCC3ED9FEC9E50070DBD00010C80A3
:010AEF00F214
:010AF00022E3
:100A68007FFFC2932090027F012091027F02209293
:100A7800027F03D293C2942090027F042091027FC8
:080A8800052092027F06D294C2
:010A90002243
:100A3A0075A0FEE4F512F5137F107E27120ACDAFDA
:100A4A00A07801EF08800123D8FDF5A00513E5136E
:0D0A5A0070020512C39408E512940040DB01
:010A6700226C
:100A910075A00F7F107E27120ACD75A0F07F107E02
:040AA10027020ACD51
:100AA50075A0FF7F107E27120ACDE4F5A07F107E8A
:040AB50027020ACD3D
:100AB90075A0F07F107E27120ACD75A00F7F107EDA
:040AC90027020ACD29
:040AFB0075A0FF22C1
:040A08008E128F13A8
:100A0C0075A0FEE4F514F515AF13AE12120ACDAFB6
:100A1C00A07801EF08800123D8FDF5A00515E51598
:0D0A2C0070020514C39408E514940040DB2B
:010A3900229A
:0300000002097C76
:0C097C00787FE4F6D8FD7581160209C3EF
:10098800020800E493A3F8E493A34003F68001F27D
:1009980008DFF48029E493A3F85407240CC8C33370
:1009A800C4540F4420C8834004F456800146F6DF3F
:1009B800E4800B0102040810204080900AF1E47ED4
:1009C800019360BCA3FF543F30E509541FFEE49334
:1009D800A360010ECF54C025E060A840B8E493A3FB
:1009E800FAE493A3F8E493A3C8C582C8CAC583CA26
:1009F800F0A3C8C582C8CAC583CADFE9DEE780BEDE
:010AFA0000FB
:00000001FF
